:1000000008308A00FD2A0000FF00030E8301A100D2
:100010000A08A0008A010408A2007708A300780853
:10002000A4007908A5007A08A6007B08A70083131E
:1000300083128C308400801E1F288C1A32282208DC
:1000400084002308F7002408F8002508F900260892
:10005000FA002708FB0020088A00210E8300FF0E0B
:100060007F0E09008A110A125F2B0A108A100A11EA
:10007000820728340C34013406340A108A100A111D
:1000800082070C3449346E34693474346934613411
:100090006C3469347A346534203420344734503435
:1000A00052345334203400340A108A100A11820763
:1000B0000A342034203474346F342034733465347B
:1000C0006E346434203464346134743461342034E4
:1000D0002034203400340A108A100A1182070D34AB
:1000E0000A3441345434453430340D340A34003445
:1000F0000A108A100A1182070C34443469347334AC
:10010000613462346C3469346E346734203465345D
:10011000633468346F34203400340A108A100A11B2
:1001200082070A3420342034203420342034203410
:10013000203420342034203420342034203420341F
:10014000203400340A108A100A1182070D340A3450
:10015000413454342B3443344734413454345434CC
:100160003D3431340D340A3400340A108A100A1137
:1001700082070C3441347434743461346334683429
:1001800069346E34673420344734703472347334D5
:1001900000340A108A100A1182070D340A344134DF
:1001A00054342B3443344734443443344F344E3482
:1001B00054343D3431342C342234493450342234D4
:1001C0002C34223469346E347434653472346E34B1
:1001D000653474342E3476346F3464346134663468
:1001E0006F346E3465342E346734723422340D34F7
:1001F0000A34003400000A148A100A11023E03185F
:100200008A0A82000C3444346534663469346E34AE
:100210006534203450344434503400340A148A1085
:100220000A1182070D340A34413454342B344334D8
:100230005334543454343D34223469346E34743479
:10024000653472346E34653474342E3476346F34DD
:100250006434613466346F346E3465342E346734FC
:10026000723422342C3422347734613470342234A2
:100270002C34223477346134703422340D340A340F
:1002800000340A148A100A1182070C34533474346F
:1002900061347234743420345434613473346B34C4
:1002A00000340A148A100A1182070D340A344134CA
:1002B00054342B34433449344934433452340D34A8
:1002C0000A3400340A148A100A1182070C344234AA
:1002D000723469346E346734553470345734693449
:1002E000723465346C3465347334733400340A14F6
:1002F0008A100A1182070D340A34413454342B34E5
:10030000433449344634533452340D340A340034BF
:100310000A148A100A1182070C34203447346534D9
:1003200074344C346F34633461346C344934703415
:100330004134643464347234203400340A148A1032
:100340000A1182070D340A34413454342B344334B7
:100350004934503448344534413444343D343134E4
:100360000D340A3400340A148A100A1182070C343E
:10037000493470342034483465346134643465342D
:10038000723400340A148A100A1182070D340A34B8
:10039000413454342B34433449345034533454347A
:1003A0004134523454343D34223454344334503480
:1003B00022342C34223473347934733474346534F5
:1003C0006D3461346E3469346134633473342E3483
:1003D0007434653469347034693472342E3467345B
:1003E000723422342C3422343834303422340D34F4
:1003F0000A34003400000A108A140A11023E03185D
:100400008A0A82000C34203454346334703420342B
:1004100043346F346E346E34653463347434693409
:100420006E346734203400340A108A140A118207AB
:100430000D340A34413454342B3443344934503469
:10044000533445344E3444340D340A3400340A10E5
:100450008A140A1182070C345234643479342034FB
:1004600074346F342034733465346E34643420341F
:10047000443461347434613400340A108A140A112B
:1004800082070C34573465346C3463346F346D3404
:100490006534203474346F3420344734503452344B
:1004A0005334203400340A108A140A1182070A34A3
:1004B00074347234613463346B3469346E34673449
:1004C0002034733479347334743465346D342034A7
:1004D00000340A108A140A1182070C3420342034A4
:1004E000563465347234733469346F346E34203466
:1004F00031342E34303420342034203400340A1087
:100500008A140A1182070A34203443346F34703459
:100510007934723469346734683474342034323452
:10052000303431343134203400340A108A140A1142
:1005300082070C3441346E3464347234693461346B
:100540006E3461346B34693473342034483461342C
:1005500072342E3400340A108A140A1182070A34C5
:10056000543473346F346D34703461346E346134A8
:100570006B346934733420344B346F3473342E3419
:1005800000340A108A140A1182070C3420345234C1
:100590006534613464347934203474346F342034F5
:1005A00070346F34773465347234203400340A1078
:1005B0008A140A1182070A3420346F346E342034CE
:1005C000473470347234733420346D346F3464348F
:1005D00075346C346534203400340A108A140A11DE
:1005E0008207203400340A108A140A11FA3E0318D4
:1005F0008A0A82000A3450346F3477346534723496
:100600004F346E34473473346D3454346F34533450
:1006100065346E34643400340A148A140A11820773
:100620000A34203420342034203420342034203440
:10063000203420342034203420342034203420341A
:10064000203400340A148A140A11820747344534CE
:10065000543420342F3469346E346434653478343F
:100660002E347034683470343F34763461346C34F2
:100670007534653430343D342534663420344834A0
:100680005434543450342F3431342E3430340D3407
:100690000A340D340A342534633400340A148A14BD
:1006A0000A1182070C3420344434613474346134C8
:1006B0002034733465346E346434213400342B3088
:1006C0003B07840083138C1E632B1A0880002B3099
:1006D0003B078400831300080D3C031D722B01307F
:1006E000BC00862B3C0B852B2B303B0784008313EF
:1006F00000080A3C031D852BBC013D0B812BBD016D
:10070000832B0130BD00BB01862BBB0A3B08103C8C
:10071000031D8B2BBB018C128A110A121F28831612
:100720001F149F141F119F111F1383121F179F1750
:1007300083169F1383121F148316091283129412B7
:10074000A812280883168700831228162808831603
:1007500087008312A81128088316870001308312AE
:100760009400003083169400831228112808831601
:100770008700831207118A150A12362B5B3084001A
:10078000831300080319D22B0530F800F701F70B8B
:10079000C72BF80BC62B2E30F700F70BCD2BD02B29
:1007A000800BC42B00346218D72B0812D82B0816E4
:1007B000831608128312E218DF2B8812E02B8816AA
:1007C0008316881283126219E72B0813E82B081787
:1007D000831608138312E219EF2B8813F02B881766
:1007E00083168813000083122812280883168700B6
:1007F000831207160230F700F70BFC2B00002812BB
:10080000280883168700831207120034E301281298
:10081000280883168700831207160000831608161F
:1008200083126310081A6314831688168312E31068
:10083000881AE3148316081783126311081B6315C3
:10084000831688178312E311881BE31528122808E2
:1008500083168700831207126308F800003483169A
:10086000081183120811831688118312881500005D
:1008700006247808E20006247808E100620EF700FA
:10088000F030F70577086104F8007808E100E11B13
:10089000332CDF080319512C831608118312081515
:1008A000552C831608118312081100008316881135
:1008B00083128811000028122808831687008312EB
:1008C0000712600EE1000F30E1056108E200D3235A
:1008D00060080F39E100E200D323003483160811C9
:1008E0008312081183168811831288112812280890
:1008F00083168700831207120F30DB00BE23CC0162
:100900004C08023C031C8C2C0330E200D32305303E
:10091000DB00BE23CC0A802C0230E200D323CC01C2
:100920004C08033C031C9D2C4C083520CD00DF01F6
:100930004D08E0002F24CC0A902C8A150A12392B7E
:100940005A080C3A0319AB2C063A0319B32C023A95
:100950000319C92CCE2CDF010130E0002F24023016
:10096000DB00BE23D42C0130DB000230DC005C0B4A
:10097000BA2CBD2C4030DD00BE2CDD0101305B0205
:10098000DD075D088038DE00DF015E08E0002F240F
:10099000D42CDF011030E0002F24D42C0130DF00F4
:1009A0005A08E0002F24D42C0034CC014C083D22FE
:1009B00000380319DF2CCC0ADA00A024D62CCC0195
:1009C0004C08532200380319E92CCC0ADA00A02481
:1009D000E02C0430CC00FA30DB00BE23CC0BEB2C37
:1009E0000430CC00FA30DB00BE23CC0BF22C0430F8
:1009F000CC00FA30DB00BE23CC0BF92CCC014C0828
:100A0000692200380319082DCC0ADA00A024FF2C33
:100A1000CC014C087F2200380319122DCC0ADA00D1
:100A2000A024092D0430CC00FA30DB00BE23CC0B0F
:100A3000142D0430CC00FA30DB00BE23CC0B1B2D70
:100A40000430CC00FA30DB00BE23CC0B222DCC01CD
:100A50004C08952200380319312DCC0ADA00A02465
:100A6000282DCC014C08AB22003803193B2DCC0AB1
:100A7000DA00A024322D0430CC00FA30DB00BE2393
:100A8000CC0B3D2D0430CC00FA30DB00BE23CC0B68
:100A9000442D0430CC00FA30DB00BE23CC0B4B2DB0
:100AA0000430CC00FA30DB00BE23CC0B522DCC013D
:100AB0004C08C12200380319612DCC0ADA00A024A9
:100AC000582DCC014C08D722003803196B2DCC0AC5
:100AD000DA00A024622D8A150A125C2B5A08031929
:100AE000DE2DE2005E080319DE2DE20703187F2DDC
:100AF0007F30E202031CDE2D0319DE2D832D8130B1
:100B0000E2070318DE2D6208F700F801F901FA0187
:100B10005B08E600E6175C08E5005D08E4001830B5
:100B2000E200E301641CAC2D6108FA07031C9E2D52
:100B3000F90A031D9E2DF80A0319E3176008F90747
:100B4000031CA52DF80A0319E3175F08DC00DC1766
:100B50005C08F8070318E317E30DF80CF90CFA0C1E
:100B6000E60CE50CE40C0310E20B912D0130F707C5
:100B70000318DE2DF81BC32DE60DFA0DF90DF80D47
:100B8000F7030319DE2DE61FD42DFA0A031DD42D19
:100B9000F90A031DD42DF80A031DD42DF80CF90C05
:100BA000FA0CF70A0319DE2D5B08E3005F08E30681
:100BB000E31FDC2DF817E22DF813E22DF701F80101
:100BC000F901FA0100345A08B63CDA00FA015B0870
:100BD000DE00DB170310DB0CDC0CDD0CFA0CF90C6F
:100BE000F80CF70CDA0BEA2DDE1F012EF709F809D5
:100BF000F909FA09F70A0319F80A0319F90A031996
:100C0000FA0A0034F701F801F901FA01E201E301FF
:100C1000E401E501610860045F045E040319402EED
:100C20002030E6000310DA0DDB0DDC0DDD0DE20DEA
:100C3000E30DE40DE50D61086502031D292E600832
:100C40006402031D292E5F086302031D292E5E081E
:100C50006202031C3A2E5E08E2025F08031C5F0F6B
:100C6000E3026008031C600FE4026108031C610FCB
:100C7000E5020314F70DF80DF90DFA0DE60B122E2F
:100C800062308400831300340408D2005108D40079
:100C90000319632E5008DD004F08DC004E08DB000E
:100CA0004D08DA00E101E0012030DF008230DE0093
:100CB0006E257A08D0007908CF007808CE00770832
:100CC000CD00D40B4A2E5008DD004F08DC004E0842
:100CD000DB004D08DA00E3257A08D0007908CF0060
:100CE0007808CE007708CD00D01F832ED203D2160D
:100CF000CD09CE09CF09D009CD0A0319CE0A0319AF
:100D0000CF0A0319D00A3B30D9009A30D800CA3034
:100D1000D700D6010A30D40051080319D20A50086E
:100D2000DD004F08DC004E08DB004D08DA005908F2
:100D3000E1005808E0005708DF005608DE000226F0
:100D40000008CD00840A0008CE00840A0008CF0005
:100D5000840A0008D000FD308407F708031DC32E65
:100D6000510A54020319C32E52080319C52E0F3914
:100D700054020319BD2E0318F52ED21BF52E521B5B
:100D8000C52E2030F12E2030D205D21ED32ED21205
:100D90005108031DD2037708D2002D30DA00A024B9
:100DA0005208F700D20151085402031DE12E7708C2
:100DB000D2002E30DA00A0245208F7002030D205ED
:100DC00000303030D21EF12ED2125108031DD20352
:100DD0007708D2002D30DA00A0245208F700D201A3
:100DE0003030F7077708DA00A0245908DD005808EA
:100DF000DC005708DB005608DA00E101E001DF0102
:100E00000A30DE0002267A08D9007908D80078086E
:100E1000D7007708D600D40B8F2E8A110A12822FA2
:100E20001030F8001F08C73978049F001E30DB001F
:100E3000BE231F151F191A2F1E08CC00CE014C0807
:100E4000CD008E30F7004E08F8004D08F900FA0189
:100E5000F808031D352F7908F800F9010830F7026A
:100E6000F808031D352FF7013D2F0310F81B3C2F09
:100E7000F90DF80DF703352FF8136F30DD00123040
:100E8000DC000330DB007830DA007A08E100790812
:100E9000E0007808DF007708DE006E257708CD00D7
:100EA0007808CE007908CF007A08D000DD007908F4
:100EB000DC007808DB007708DA00E101E001483067
:100EC000DF008530DE006E257A08C1007908C00099
:100ED0007808BF007708BE000C30DA00A024543038
:100EE000DA00A0243D30DA00A024893084004108D3
:100EF000D0004008CF003F08CE003E08CD000230B1
:100F0000D100442E4330DA00A0240A30DA00A024B5
:100F10008A150A12712BD0080319D72F4D08FA0031
:100F20004C08840083137A1883170008D1004F08F7
:100F3000FA004E08840083137A18831700085102C0
:100F40000319BC2F4D08FA004C08840083137A184B
:100F500083170008D1004F08FA004E08840083135D
:100F60007A188317000851020318B82FFF30B92FE1
:100F70000130F800D92FC92F4D08FA004C08840021
:100F800083137A1883178008031DC92F0030F800D7
:100F9000D92F4D08FA004C08CC0A0319CD0A4F0886
:100FA000FA004E08CE0A0319CF0AD0038B2F003067
:080FB000F8008A150A129C2BBF
:10100000CC014C088A113D208A15003803190E289E
:10101000CC0ADA008A11A0248A150128CC014C08D8
:101020008A1154208A15003803191C28CC0ADA00CA
:101030008A11A0248A150F280430CC00FA30DB0076
:101040008A11BE238A15CC0B1E280430CC00FA303E
:10105000DB008A11BE238A15CC0B2728CC014C0853
:101060008A116B208A15CC0AF70077080C1E3628E7
:10107000990008304C02031D2F28CC014C088A111E
:1010800078208A15003803194B28CC0ADA008A1117
:10109000A0248A153E28BD08031D5D28CC014C08FC
:1010A0008A118D208A15003803195C28CC0ADA00D1
:1010B0008A11A0248A154F284B280430CC00FA301E
:1010C000DB008A11BE238A15CC0B5F28CC014C08AB
:1010D0008A11A2208A15CC0AF70077080C1E6E2808
:1010E00099000E304C02031D6728CC014C088A1170
:1010F000B5208A15003803198328CC0ADA008A1132
:10110000A0248A157628BD08031D9528CC014C081B
:101110008A118D208A15003803199428CC0ADA0028
:101120008A11A0248A15872883280430CC00FA303D
:10113000DB008A11BE238A15CC0B9728CC014C0802
:101140008A11C9208A15CC0AF70077080C1EA62838
:1011500099002C304C02031D9F28CC014C088A11A9
:10116000FA208A1500380319BB28CC0ADA008A1144
:10117000A0248A15AE28BD08031DCD28CC014C083B
:101180008A118D208A1500380319CC28CC0ADA0080
:101190008A11A0248A15BF28BB280430CC00FA305D
:1011A000DB008A11BE238A15CC0BCF28CC014C085A
:1011B0008A110E218A15CC0AF70077080C1EDE284A
:1011C00099002E304C02031DD728CC014C088A11FF
:1011D00041218A1500380319F328CC0ADA008A1154
:1011E000A0248A15E628BD08031D0529CC014C085A
:1011F0008A118D208A15003803190429CC0ADA00D7
:101200008A11A0248A15F728F3280430CC00FA307C
:10121000DB008A11BE238A15CC0B0729CC014C08B0
:101220008A1151218A15CC0AF70077080C1E16295D
:1012300099000C304C02031D0F29CC014C088A1177
:1012400062218A15003803192B29CC0ADA008A1189
:10125000A0248A151E29BD08031D3D29CC014C0878
:101260008A118D208A15003803193C29CC0ADA002E
:101270008A11A0248A152F292B290430CC00FA309A
:10128000DB008A11BE238A15CC0B3F29CC014C0808
:101290008A1177218A15CC0AF70077080C1E4E298F
:1012A00099000C304C02031D4729CC014C088A11CF
:1012B00088218A15003803196329CC0ADA008A11BB
:1012C000A0248A1556290430CC00FA30DB008A119C
:1012D000BE238A15CC0B65290430CC00FA30DB0024
:1012E0008A11BE238A15CC0B6E29CC014C088A11B9
:1012F0008D208A15003803198329CC0ADA008A1157
:10130000A0248A157629CC014C088A119E218A15C1
:10131000CC0AF70077080C1E8B29990010304C027C
:10132000031D8429CC014C088A11B3218A15003889
:101330000319A029CC0ADA008A11A0248A1593295E
:10134000BD08031DB229CC014C088A118D208A15D5
:1013500000380319B129CC0ADA008A11A0248A15B1
:10136000A429A0290430CC00FA30DB008A11BE2366
:101370008A15CC0BB429CC014C088A11C2218A15DC
:10138000CC0AF70077080C1EC329990033304C02B1
:10139000031DBC29CC014C088A11FA218A1500389A
:1013A0000319D829CC0ADA008A11A0248A15CB297E
:1013B000BD08031DEA29CC014C088A118D208A152D
:1013C00000380319E929CC0ADA008A11A0248A1509
:1013D000DC29D8290430CC00FA30DB008A11BE2386
:1013E0008A15CC0BEC290430CC00FA30DB008A11D2
:1013F000BE238A15CC0BF529CC014C088A11142286
:101400008A15CC0AF70077080C1E042A99000E30C2
:101410004C02031DFD29CC014C088A1127228A1594
:1014200000380319192ACC0ADA008A11A0248A1577
:101430000C2A0430CC00FA30DB008A11BE238A1556
:10144000CC0B1B2A8A150A12DB2B0408D200510888
:10145000D4000319462A5008DD004F08DC004E086E
:10146000DB004D08DA00E101E0012030DF008230CE
:10147000DE008A116E258A157A08D0007908CF001F
:101480007808CE007708CD00D40B2B2A5008DD0059
:101490004F08DC004E08DB004D08DA008A11E32516
:1014A0008A157A08D0007908CF007808CE0077082E
:1014B000CD00D01F682AD203D216CD09CE09CF099C
:1014C000D009CD0A0319CE0A0319CF0A0319D00A8D
:1014D0003B30D9009A30D800CA30D700D6010A3044
:1014E000D40051080319D20A5008DD004F08DC006F
:1014F0004E08DB004D08DA005908E1005808E0000A
:101500005708DF005608DE008A1102268A150008F7
:10151000CD00840A0008CE00840A0008CF00840AA7
:101520000008D000FD308407F708031DAA2A510ADD
:1015300054020319AA2A52080319AC2A0F3954027B
:101540000319A42A0318E02AD21BE02A521BAC2A52
:101550002030DB2A2030D205D21EBB2AD2125108FD
:10156000031DD2037708D2002D300C1EB52A990036
:101570005208F700D20151085402031DCA2A770805
:10158000D2002E300C1EC22A99005208F7002030DB
:10159000D20500303030D21EDB2AD2125108031D92
:1015A000D2037708D2002D300C1ED42A990052089D
:1015B000F700D2013030F70777080C1EDD2A9900BA
:1015C0005908DD005808DC005708DB005608DA002F
:1015D000E101E001DF010A30DE008A1102268A15EE
:1015E0007A08D9007908D8007808D7007708D6009B
:1015F000D40B742A8A150A12092C840183131F3014
:101600008305193083169900A23098009030831218
:101610009800193083169900A230980090308312F8
:10162000980083161F149F141F159F1107309C00EC
:10163000FF308312A800A901AA01BB010230BC003F
:10164000BD014330C2006130C3006C30C400C5002E
:101650002030C6005230C7006530C8006130C90074
:101660006430CA007930CB008A118F2B8A158A1119
:101670006E2C8A1583168C16C03083128B040430AE
:10168000CC00FA30DB008A11BE238A15CC0B412B2B
:10169000CC01CD012B30840083134C0884074D0806
:1016A0008A11ED228A158000003803195A2BCD0AC1
:1016B000CC0A4A2B8A11D52C8A150430CC00FA307A
:1016C000DB008A11BE238A15CC0B5F2B0430CC00C3
:1016D000FA30DB008A11BE238A15CC0B682B8A11E5
:1016E000102F8A150430CC00FA30DB008A11BE239B
:1016F0008A15CC0B742B0430CC00FA30DB008A1135
:10170000BE238A15CC0B7D2BCC014C088A11F32209
:101710008A1500380319922BCC0ADA008A11A0240A
:101720008A15852BCD012B30CC00CF014230CE0065
:101730000A30D0008A118B2F8A15F8080319DA2B8A
:101740000430CC00FA30DB008A11BE238A15CC0BA2
:10175000A22BBC08031DD92B0C30DA008A11A0245F
:101760008A152B3084008313003000040319CA2B20
:10177000CD010408CC004D10831B4D140008DA0085
:101780008A11A0248A154C08840083134D188317EE
:10179000840AB42BCC014C088A110C238A1500381A
:1017A0000319D82BCC0ADA008A11A0248A15CB2B76
:1017B000BB01922B00280430CC00FA30DB008A11E8
:1017C000BE238A15CC0BDD2B0430CC00FA30DB00B5
:1017D0008A11BE238A15CC0BE62BCC014C088A114A
:1017E00022238A15CC0AF70077080C1EF52B9900E6
:1017F00016304C02031DEE2B893084004108D000C6
:101800004008CF003F08CE003E08CD000230D10096
:10181000252A1830CD004D088A1122238A15CD0AB9
:10182000F70077080C1E122C990025304D02031D7D
:101830000B2C1A300C1E1A2C9900CC014C088A1162
:101840004E238A15003803192B2CCC0ADA008A1192
:0A185000A0248A151E2C2B2C630027
:02400E003A393D
:00000001FF
;PIC16F877A
